:100000000C9461000C9489000C9489000C94890074
:100010000C9489000C9489000C9489000C9489003C
:100020000C9489000C9489000C9489000C9489002C
:100030000C9489000C9489000C9489000C9489001C
:100040000C94C6050C9489000C9436060C9410068A
:100050000C9489000C9489000C9489000C948900FC
:100060000C9489000C9489005A7375744574686502
:10007000726E65745544503A3A626567696E5061B4
:10008000636B657428636F6E73742063686172209C
:100090002A686F73742C2075696E7431365F742012
:1000A000706F7274293B206973206E6F74207375B2
:1000B00070706F727465642120536F7272792100C1
:1000C000680611241FBECFEFD8E0DEBFCDBF11E020
:1000D000A0E0B1E0E6E4F4E102C005900D92AA3D93
:1000E000B107D9F724E0AAEDB1E001C01D92AB360B
:1000F000B207E1F710E0C1E6D0E004C02197FE01AD
:100100000E941B0AC036D107C9F70E94F6060C945C
:10011000210A0C9400003FB7F894809173039091EA
:100120007403A0917503B091760326B5A89B05C012
:100130002F3F19F00196A11DB11D3FBFBA2FA92F66
:10014000982F8827BC01CD01620F711D811D911D63
:1001500042E0660F771F881F991F4A95D1F70895CF
:100160008F929F92AF92BF92CF92DF92EF92FF92C7
:100170004B015C010E948B006B017C010E948B0093
:100180006C197D098E099F09683E734081059105B0
:10019000A8F321E0821A9108A108B10888EEC80EE0
:1001A00083E0D81EE11CF11C81149104A104B10468
:1001B00029F7FF90EF90DF90CF90BF90AF909F9086
:1001C0008F900895AF92BF92CF92DF92EF92FF92FD
:1001D0000F931F93CF93DF936C017B018B01040F6F
:1001E000151FEB015E01AE18BF08C017D10759F00B
:1001F0006991D601ED91FC910190F081E02DC6014D
:100200000995892B79F7C501DF91CF911F910F9146
:10021000FF90EF90DF90CF90BF90AF900895FC01DA
:10022000538D448D252F30E0842F90E0821B930B5B
:10023000541710F0CF96089501970895FC01918D01
:10024000828D981761F0A28DAE0FBF2FB11D5D9604
:100250008C91928D9F5F9F73928F90E008958FEFA6
:100260009FEF0895FC01918D828D981731F0828D5A
:10027000E80FF11D858D90E008958FEF9FEF0895B1
:10028000FC01918D228D892F90E0805C9F4F821B15
:1002900091098F739927089587E893E00E944001A0
:1002A00021E0892B09F420E0822F089580E090E07E
:1002B000892B29F00E944C0181110C9400000895B3
:1002C000FC01A48DA80FB92FB11DA35ABF4F2C91CB
:1002D000848D90E001968F739927848FA689B789C2
:1002E0002C93A089B1898C91837080648C93938DB9
:1002F000848D981306C00288F389E02D80818F7D5C
:1003000080830895EF92FF920F931F93CF93DF9313
:10031000EC0181E0888F9B8D8C8D98131AC0E88941
:10032000F989808185FF15C09FB7F894EE89FF8910
:100330006083E889F98980818370806480839FBFAE
:1003400081E090E0DF91CF911F910F91FF90EF90AE
:100350000895F62E0B8D10E00F5F1F4F0F731127BE
:10036000E02E8C8D8E110CC00FB607FCFACFE889F9
:10037000F989808185FFF5CFCE010E946001F1CF20
:10038000EB8DEC0FFD2FF11DE35AFF4FF0829FB76D
:10039000F8940B8FEA89FB8980818062CFCFCF935D
:1003A000DF93EC01888D8823B9F0AA89BB89E8899D
:1003B000F9898C9185FD03C0808186FD0DC00FB643
:1003C00007FCF7CF8C9185FFF2CF808185FFEDCFC1
:1003D000CE010E946001E9CFDF91CF91089581E0C5
:1003E000089587E08CBF95EE9BBF1ABE8CBF86EE4A
:1003F0008BBF1ABE089590E080E0089597E09CBFFF
:1004000087EE8BBF2AB79CBF88EE8BBF8AB7322F8F
:10041000282F9CBF85EE8BBF8AB79CBF96EE9BBFF3
:100420009AB7892798278927821B930B4817590762
:1004300008F4CA01A9014751584FFB01DB01A80F7D
:10044000B91FEA17FB0739F05CBF4BBF6AB761936E
:100450004F5F5F4FF6CF280F391F47E04CBF57EE75
:100460005BBF3ABF4CBF38EE3BBF2ABF0895CF9366
:10047000DF931F92CDB7DEB7DC01ED91FC91028CCA
:10048000F38DE02D41E050E0BE016F5F7F4F099595
:100490001816190634F4898190E00F90DF91CF91FE
:1004A00008958FEF9FEFF9CFFC0197E09CBF85EE99
:1004B0008BBF8AB79CBF26EE2BBF6AB79CBF27EEC7
:1004C0002BBF2AB79CBF98EE9BBF3AB71CBE90E1EA
:1004D0009BBF9AB71CBE4FE04BBF4AB71CBE5EE045
:1004E0005BBF5AB71CBE7DE07BBF7AB7708B518B68
:1004F000428B938B1CBE91E19BBF4AB71CBE92E11D
:100500009BBF9AB7542F492F558B448B982F862F1A
:10051000232732272327821B930B08951CBE83E1D8
:100520008BBF8AB71CBE94E19BBF9AB789279827D7
:100530008927FB019C012B5E3F4FDB01A40FB51FF8
:10054000EA17FB0739F061913CBF2BBF6ABF2F5FF1
:100550003F4FF6CF480F591F1CBE83E18BBF5ABFD8
:100560001CBE84E18BBF4ABF90E080E00895CF932A
:10057000DF931F92CDB7DEB76983DC01ED91FC916B
:100580000280F381E02D41E050E0BE016F5F7F4FBC
:1005900009950F90DF91CF9108951CBE1BBE8FEF80
:1005A0008ABF1CBE1BBE82E08ABF90E080E0089537
:1005B000FB0132812381948185811CBE1BBE61E0D9
:1005C0006ABF1CBE6DE06BBF3ABF1CBE3EE03BBFC6
:1005D0002ABF1CBE2FE02BBF9ABF1CBE90E19BBF61
:1005E0008ABF1CBE81E18BBF5ABF1CBE82E18BBF9C
:1005F0004ABF81E090E008950895DC01ED91FC91FF
:10060000008CF18DE02D09941CBE8BE08BBF7ABF6E
:100610001CBE8CE08BBF6ABF1CBE1BBE83E08ABFC2
:1006200081E00895FC0184899589089526E431E0EC
:10063000FC0131832083FB014089518962897389E0
:10064000FC014283538364837583089590E080E0C6
:100650000895EF92FF920F931F93CF93DF9300D0F3
:1006600000D000D0CDB7DEB78C017B0186E491E0ED
:100670009A8389838091550490915604A0915704E0
:10068000B09158048B839C83AD83BE8349E350E3D0
:10069000BE016F5F7F4F88E394E00E94D802A701FC
:1006A000B80188E394E00E948E0288E394E00E94FF
:1006B000CD0281E090E026960FB6F894DEBF0FBE23
:1006C000CDBFDF91CF911F910F91FF90EF900895D3
:1006D000DC01ED91FC91028CF38DE02D0994FB017E
:1006E00001900020E9F73197AF01461B570BDC0161
:1006F000ED91FC910280F381E02D09948F929F92FD
:10070000AF92BF92EF92FF920F931F93CF93DF931D
:10071000CDB7DEB7A1970FB6F894DEBF0FBECDBF41
:100720007C01FA01CB0119A2223008F42AE08E01E3
:100730000F5D1F4F822E912CB12CA12CBF01A50162
:1007400094010E94EA09F901CA016A300CF5605D62
:10075000D8016E938D01232B242B252B79F790E064
:1007600080E0109721F0BD01C7010E946F03A196A0
:100770000FB6F894DEBF0FBECDBFDF91CF911F91B2
:100780000F91FF90EF90BF90AF909F908F90089542
:10079000695CDECFCF92DF92EF92FF92CF93DF932F
:1007A0006C01990FEE08FF08F7FE1BC06DE287E8A9
:1007B00093E00E948201EC0144275527BA014C19AD
:1007C0005D096E097F092AE087E893E00E947E03B5
:1007D0008C0F9D1FDF91CF91FF90EF90DF90CF9016
:1007E00008952AE0B701A60187E893E0DF91CF9151
:1007F000FF90EF90DF90CF900C947E038F929F92AA
:10080000AF92BF92CF92DF92EF92FF920F931F931E
:10081000CF93DF937C01EB016C0182E0C80ED11C09
:100820004701E5E08E0E911C10E000E0F6014191D9
:100830006F0150E070E060E02AE0CE010E947E038C
:100840005C01E881F9810190F081E02D6EE2CE013A
:1008500009958A0D9B1D080F191FC814D90431F77B
:10086000F701458150E070E060E02AE0CE010E948F
:100870007E03800F911FDF91CF911F910F91FF9009
:10088000EF90DF90CF90BF90AF909F908F900895A2
:10089000CF93DF93BC0187E893E00E946F03EC01E4
:1008A00068E471E087E893E00E946F038C0F9D1F5E
:1008B000DF91CF910895CF93DF93C8E6D0E0FE019A
:1008C0006491662339F087E893E00E9482012196C3
:1008D000892BA9F768E471E087E893E00E946F0331
:1008E000989590E080E0DF91CF910895CF93DF93CA
:1008F000EC01FA012081318184E0220F331F8A95B7
:10090000E1F7207196E0660F771F9A95E1F7606234
:10091000262B8281938133E0880F991F3A95E1F766
:100920008870282B80859185880F991F880F991FC3
:100930008470282B82859385880F991F8270282BBD
:1009400028838AE08983DE011296EBE4F1E00190CE
:100950000D928A95E1F7FA019A01205F3F4F8CE0F2
:1009600090E04081518141305105B9F44281538179
:10097000452B99F444815581052E000C660B770BAD
:10098000DE01A80FB91F7C9311966C9311971296F4
:100990005C93129713964C93049638962E173F0744
:1009A00001F7DF91CF910895CF93DF93CDB7DEB7F5
:1009B000D4500FB6F894DEBF0FBECDBF47E753E06B
:1009C00070E060E0CE0101960E94760418161906C8
:1009D00074F4BC01CE0101960E942903DC5F0FB6BE
:1009E000F894DEBF0FBECDBFDF91CF91089590E0A8
:1009F00080E0F4CF6F927F928F929F92AF92BF92DE
:100A0000CF92DF92EF92FF920F931F93CF93DF93DA
:100A1000CDB7DEB7C052D4400FB6F894DEBF0FBEDC
:100A2000CDBF6C01A12C34E0B32E8E010F5F1F4FA0
:100A3000D801F5011D923197E9F7AC0161E070E052
:100A4000C8010E947604181619060CF086C0BC0175
:100A5000C8010E9429037C01019709F07EC0D801DA
:100A6000F5011D923197E9F76CEB72E080E090E0C0
:100A70000E94B00088E394E00E9454021816190600
:100A80000CF06BC040E054E0B80188E394E00E94B1
:100A900068038A81482F082E000C550BDE0113963F
:100AA0009E012F5F3B4FF9015D01BF01621B730B7C
:100AB000641775071CF49D919193F7CF87FD80E033
:100AC000082E000C990B0296240F351FD9011C9299
:100AD000298125FB882480F8912CF60144E050E020
:100AE000712C612C2981A22F220FBB0BBD01042E7A
:100AF00002C0759567950A94E2F761707727718354
:100B000060836A0121E0C21AD1089D0102C03595B7
:100B10002795CA94E2F72170332733832283672B0A
:100B200091F0232B81F49501280F391FD9016C9185
:100B30009C012D5F3F4F200F311F0496D9012C914E
:100B4000362F35832483425051093896681479042E
:100B500034F466246394712CC5CFF12CE12CC701C9
:100B6000C05EDB4F0FB6F894DEBF0FBECDBFDF9186
:100B7000CF911F910F91FF90EF90DF90CF90BF909A
:100B8000AF909F908F907F906F9008951F920F92DB
:100B90000FB60F9211242F933F938F939F93AF9390
:100BA000BF9380916F0390917003A0917103B091F6
:100BB000720330916E0323E0230F2D3758F5019611
:100BC000A11DB11D20936E0380936F03909370035A
:100BD000A0937103B0937203809173039091740397
:100BE000A0917503B09176030196A11DB11D80936C
:100BF000730390937403A0937503B0937603BF912E
:100C0000AF919F918F913F912F910F900FBE0F90B9
:100C10001F90189526E8230F0296A11DB11DD2CF73
:100C20001F920F920FB60F9211242F933F934F9361
:100C30005F936F937F938F939F93AF93BF93EF9344
:100C4000FF9387E893E00E946001FF91EF91BF91CD
:100C5000AF919F918F917F916F915F914F913F9154
:100C60002F910F900FBE0F901F9018951F920F920B
:100C70000FB60F9211242F938F939F93EF93FF93AF
:100C8000E0919703F09198038081E0919D03F091AA
:100C90009E0382FD1BC090818091A0038F5F8F73A4
:100CA0002091A103821741F0E091A003F0E0E95701
:100CB000FC4F958F8093A003FF91EF919F918F91AF
:100CC0002F910F900FBE0F901F9018958081F4CF39
:100CD000CF92DF92EF92FF92CF93DF93E7E8F3E0BA
:100CE0001382128288EEC82E83E0D82EE12CF12CDC
:100CF000C482D582E682F7828CE091E09183808382
:100D000085EC90E09587848784EC90E097878687D0
:100D100080EC90E0918B808B81EC90E0938B828BC8
:100D200082EC90E0958B848B86EC90E0978B868BA1
:100D3000118E128E138E148EE4E2F4E0C6E4D1E03C
:100D4000D183C0831282138214821582E2E3F4E01D
:100D5000D183C0831282138214821582EAE2F4E006
:100D6000D183C0831282138214821582E9E5F4E0F4
:100D7000D183C08312821382148215820E9460097B
:100D8000E3E5F4E0D183C08380EC828388EA838347
:100D900014828FE28583E8E3F4E013821282C48236
:100DA000D582E682F7828EE191E091838083D787B6
:100DB000C687108A118A128A138A84E0808FEFE531
:100DC000F4E0D183C0831282138214821582E5E697
:100DD000F4E0D183C0831282138214821582DF91E2
:100DE000CF91FF90EF90DF90CF900895CF93DF9356
:100DF000CDB7DEB760970FB6F894DEBF0FBECDBF9C
:100E0000789484B5826084BD84B5816084BD85B5E5
:100E1000826085BD85B5816085BD80916E008160F1
:100E200080936E0010928100809181008260809397
:100E30008100809181008160809381008091800099
:100E40008160809380008091B10084608093B100C4
:100E50008091B00081608093B00080917A008460BE
:100E600080937A0080917A00826080937A008091EA
:100E70007A00816080937A0080917A008068809304
:100E80007A001092C100E0919703F091980382E0FC
:100E90008083E0919303F09194031082E091950395
:100EA000F09196038FEC808310929F03E0919B0357
:100EB000F0919C0386E08083E0919903F0919A037E
:100EC000808180618083E0919903F0919A03808111
:100ED00088608083E0919903F0919A038081806813
:100EE0008083E0919903F0919A0380818F7D8083C4
:100EF00088E080932C0480932D0480932E048093AB
:100F00002F046CED75E080E090E00E94B00046B7E1
:100F100087B728B739B790E0B0E0A0E0DC019927A7
:100F20008827832B922B0E94090986E591E00E9475
:100F300048040E94600928EE33E040E050E00E943F
:100F4000B80968577C4E8F4F9F4F88E394E00E940A
:100F50000403EE24E394F12CE3E68E2E912CA12CD5
:100F6000B12CF0E06F2EF0E07F2E0E946009F0922D
:100F70007803E092770310927A0310927903F0924B
:100F80007C03E0927B03F0928003E0927F03109257
:100F9000820310928103A50194010E94B8096F5F3A
:100FA0007F4F8F4F9F4F70938403609383030E9402
:100FB000D404019709F084C062E771E087E893E008
:100FC0000E946F0380917B0390917C030E94CA036F
:100FD0006EE871E087E893E00E946F0380918303DD
:100FE000909184030E94CA0381E991E00E94480421
:100FF00068EC70E080E090E00E94B000CE010196C5
:101000000E94FA04019791F569EA71E087E893E09C
:101010000E946F038D819E810E94CA036EE871E079
:1010200087E893E00E946F038D859E850E94CA0326
:1010300081E991E00E9448048D819E812D853E8545
:10104000019709F040C080916C0390916D03843644
:101050009105CCF5FC01EE0FFF1FEC55FD4F3183E0
:101060002083019690936D0380936C0366EB71E08F
:1010700087E893E00E946F0394EAC92E92E0D92E8C
:1010800010E000E080916C0390916D030817190740
:101090005CF5F601819191916F010E94CA038091E4
:1010A0006C0390916D0301970817190734F469ECEC
:1010B00071E087E893E00E946F030F5F1F4FE2CF5C
:1010C00083E991E093CF8091A2029091A302FC0169
:1010D000EE0FFF1FE652FE4F31832083019690935F
:1010E000A3028093A202C2CF81E991E00E9448044A
:1010F0006BEC71E087E893E00E946F038AEDC82EE5
:1011000081E0D82E10E000E08091A2029091A3022D
:1011100008171907BCF4F601819191916F010E94A3
:10112000CA038091A2029091A302019708171907A0
:1011300034F469EC71E087E893E00E946F030F5F7D
:101140001F4FE2CF81E991E00E94480468E471E01A
:1011500087E893E00E946F036114710409F405CFDE
:101160000E944C01882309F400CF0E940000FDCEAC
:101170008F929F92AF92BF92CF92DF92EF92FF92A7
:10118000CF93DF93EC01688179818A819B8161151E
:1011900071058105910521F464E279ED8BE597E015
:1011A0002DE133EF41E050E00E94B80949015A01B6
:1011B0009B01AC01A7EAB1E40E94D7096B017C0155
:1011C000ACEEB4EFA50194010E94E509DC01CB016E
:1011D0008C0D9D1DAE1DBF1DB7FF03C00197A1095A
:1011E000B04888839983AA83BB839F77DF91CF918F
:1011F000FF90EF90DF90CF90BF90AF909F908F9037
:1012000008950E94B808089580E091E00E94B8080F
:101210000895B0E0A0E08093000190930101A093B5
:101220000201B093030108958F929F92AF92BF92F3
:10123000CF92DF92EF92FF92CF93DF93EC01688120
:1012400079818A819B81611571058105910521F460
:1012500064E279ED8BE597E02DE133EF41E050E07A
:101260000E94B80949015A019B01AC01A7EAB1E407
:101270000E94D7096B017C01ACEEB4EFA50194018B
:101280000E94E509C60ED71EE81EF91EF7FE06C02D
:1012900081E0C81AD108E10880E8F80AC882D9823A
:1012A000EA82FB82C701B6019F77DF91CF91FF9061
:1012B000EF90DF90CF90BF90AF909F908F90089568
:1012C0008F929F92AF92BF92CF92DF92EF92FF9256
:1012D00060910401709105018091060190910701D0
:1012E000611571058105910521F464E279ED8BE5C5
:1012F00097E02DE133EF41E050E00E94B809490149
:101300005A019B01AC01A7EAB1E40E94D7096B0125
:101310007C01ACEEB4EFA50194010E94E509C60E74
:10132000D71EE81EF91EF7FE06C081E0C81AD108D4
:10133000E10880E8F80AC0920401D0920501E09229
:101340000601F0920701C701B6019F77FF90EF9069
:10135000DF90CF90BF90AF909F908F900895609353
:10136000040170930501809306019093070108958D
:10137000052E97FB1EF400940E94CF0957FD07D05D
:101380000E94EA0907FC03D04EF40C94CF09509553
:101390004095309521953F4F4F4F5F4F0895909561
:1013A0008095709561957F4F8F4F9F4F08950E9454
:1013B0000C0AA59F900DB49F900DA49F800D911DC8
:1013C00011240895B7FF0C94D7090E94D709821BF6
:1013D000930B0895A1E21A2EAA1BBB1BFD010DC0A1
:1013E000AA1FBB1FEE1FFF1FA217B307E407F507D5
:1013F00020F0A21BB30BE40BF50B661F771F881FB1
:10140000991F1A9469F760957095809590959B0146
:10141000AC01BD01CF010895A29FB001B39FC001EF
:10142000A39F700D811D1124911DB29F700D811D10
:101430001124911D0895EE0FFF1F0590F491E02DEA
:061440000994F894FFCFAF
:101446000100000001000000000000008201E2002F
:101456000F01CF0140011E01320100000000B7025A
:101466008E022603F101FD023702FB010403FC0292
:10147600D8025B04CD025402FE0168031603120370
:10148600EF0100000000FE030D0A006D616E61674A
:10149600657252657100506F6C61637A6F6E6F2072
:1014A6007A207369656369612045746865726E6543
:1014B60074004B726F746B61207779736C616E6127
:1014C60020706F6D79736C6E69653A205B002C2015
:1014D600005D00426C616420777973796C616E6996
:1014E60061206B726F746B69004F74727A796D61EB
:1014F6006E6F3A205B004C69637A62792070696589
:101506007277737A653A205B002C004C69637A62C5
:0A1516007920696E6E653A205B00D3
:00000001FF
