:100000000C947F000C94A7000C94A7000C94A700FC
:100010000C94A7000C94A7000C94A7000C94A700C4
:100020000C94A7000C94A7000C94A7000C94A700B4
:100030000C94A7000C94A7000C94A7000C94A700A4
:100040000C9411050C94A7000C9481050C945B058D
:100050000C94A7000C94A7000C94A7000C94A70084
:100060000C94A7000C94A7005A73757445746865C6
:10007000726E65745544503A3A626567696E5061B4
:10008000636B657428636F6E73742063686172209C
:100090002A686F73742C2075696E7431365F742012
:1000A000706F7274293B206973206E6F74207375B2
:1000B00070706F727465642120536F7272792100C1
:1000C00000000000250028002B0000000000240094
:1000D00027002A00040404040404040402020202A7
:1000E00002020303030303030102040810204080FB
:1000F000010204081020010204081020B305112495
:100100001FBECFEFD8E0DEBFCDBF12E0A0E0B1E070
:10011000EAE4F2E102C005900D92AC30B107D9F7E4
:1001200023E0ACE0B2E001C01D92AD30B207E1F7D0
:1001300010E0CFE7D0E004C02197FE010E941D0926
:10014000CE37D107C9F70E9441060C9423090C94BD
:1001500000003FB7F8948091150290911602A0918B
:100160001702B091180226B5A89B05C02F3F19F0C1
:100170000196A11DB11D3FBFBA2FA92F982F882727
:10018000BC01CD01620F711D811D911D42E0660F02
:10019000771F881F991F4A95D1F708958F929F92D4
:1001A000AF92BF92CF92DF92EF92FF924B015C0130
:1001B0000E94A9006B017C010E94A9006C197D09B5
:1001C0008E099F09683E734081059105A8F321E0DF
:1001D000821A9108A108B10888EEC80E83E0D81EE3
:1001E000E11CF11C81149104A104B10429F7FF90D2
:1001F000EF90DF90CF90BF90AF909F908F90089539
:10020000AF92BF92CF92DF92EF92FF920F931F9324
:10021000CF93DF936C017B018B01040F151FEB0162
:100220005E01AE18BF08C017D10759F06991D60119
:10023000ED91FC910190F081E02DC6010995892B8B
:1002400079F7C501DF91CF911F910F91FF90EF904A
:10025000DF90CF90BF90AF900895FC01538D448DF7
:10026000252F30E0842F90E0821B930B541710F061
:10027000CF96089501970895FC01918D828D98176E
:1002800061F0A28DAE0FBF2FB11D5D968C91928D46
:100290009F5F9F73928F90E008958FEF9FEF089577
:1002A000FC01918D828D981731F0828DE80FF11D40
:1002B000858D90E008958FEF9FEF0895FC01918D5B
:1002C000228D892F90E0805C9F4F821B91098F7354
:1002D0009927089589E292E00E945E0121E0892B2E
:1002E00009F420E0822F089580E090E0892B29F026
:1002F0000E946A0181110C9400000895FC01A48DF4
:10030000A80FB92FB11DA35ABF4F2C91848D90E037
:1003100001968F739927848FA689B7892C93A0891A
:10032000B1898C91837080648C93938D848D9813A4
:1003300006C00288F389E02D80818F7D8083089537
:10034000EF92FF920F931F93CF93DF93EC0181E025
:10035000888F9B8D8C8D98131AC0E889F9898081CC
:1003600085FF15C09FB7F894EE89FF896083E889FF
:10037000F98980818370806480839FBF81E090E0F1
:10038000DF91CF911F910F91FF90EF900895F62E7E
:100390000B8D10E00F5F1F4F0F731127E02E8C8D18
:1003A0008E110CC00FB607FCFACFE889F98980815D
:1003B00085FFF5CFCE010E947E01F1CFEB8DEC0FD2
:1003C000FD2FF11DE35AFF4FF0829FB7F8940B8F7A
:1003D000EA89FB8980818062CFCFCF93DF93EC01E4
:1003E000888D8823B9F0AA89BB89E889F9898C911D
:1003F00085FD03C0808186FD0DC00FB607FCF7CFD9
:100400008C9185FFF2CF808185FFEDCFCE010E94D8
:100410007E01E9CFDF91CF91089581E0089587E0D3
:100420008CBF95EE9BBF1ABE8CBF86EE8BBF1ABEEB
:10043000089590E080E0089597E09CBF87EE8BBF21
:100440002AB79CBF88EE8BBF8AB7322F282F9CBF5C
:1004500085EE8BBF8AB79CBF96EE9BBF9AB7892764
:1004600098278927821B930B4817590708F4CA015C
:10047000A9014751584FFB01DB01A80FB91FEA172B
:10048000FB0739F05CBF4BBF6AB761934F5F5F4FAB
:10049000F6CF280F391F47E04CBF57EE5BBF3ABF7E
:1004A0004CBF38EE3BBF2ABF0895CF93DF931F9216
:1004B000CDB7DEB7DC01ED91FC91028CF38DE02D20
:1004C00041E050E0BE016F5F7F4F09951816190695
:1004D00034F4898190E00F90DF91CF9108958FEFF0
:1004E0009FEFF9CFFC0197E09CBF85EE8BBF8AB7E9
:1004F0009CBF26EE2BBF6AB79CBF27EE2BBF2AB747
:100500009CBF98EE9BBF3AB71CBE90E19BBF9AB7C9
:100510001CBE4FE04BBF4AB71CBE5EE05BBF5AB784
:100520001CBE7DE07BBF7AB7708B518B428B938B67
:100530001CBE91E19BBF4AB71CBE92E19BBF9AB71C
:10054000542F492F558B448B982F862F23273227E2
:100550002327821B930B08951CBE83E18BBF8AB7B0
:100560001CBE94E19BBF9AB7892798278927FB0176
:100570009C012B5E3F4FDB01A40FB51FEA17FB0761
:1005800039F061913CBF2BBF6ABF2F5F3F4FF6CF61
:10059000480F591F1CBE83E18BBF5ABF1CBE84E1AC
:1005A0008BBF4ABF90E080E00895CF93DF931F9206
:1005B000CDB7DEB76983DC01ED91FC910280F38158
:1005C000E02D41E050E0BE016F5F7F4F09950F9035
:1005D000DF91CF9108951CBE1BBE8FEF8ABF1CBE5A
:1005E0001BBE82E08ABF90E080E00895FB0132816B
:1005F0002381948185811CBE1BBE61E06ABF1CBE45
:100600006DE06BBF3ABF1CBE3EE03BBF2ABF1CBEC5
:100610002FE02BBF9ABF1CBE90E19BBF8ABF1CBEC0
:1006200081E18BBF5ABF1CBE82E18BBF4ABF81E014
:1006300090E008950895DC01ED91FC91008CF18D1E
:10064000E02D09941CBE8BE08BBF7ABF1CBE8CE0F2
:100650008BBF6ABF1CBE1BBE83E08ABF81E00895CA
:10066000FC0184899589089526E431E0FC013183F9
:100670002083FB014089518962897389FC0142838F
:10068000538364837583089590E080E00895DC01CE
:10069000ED91FC91028CF38DE02D0994FB0101900A
:1006A0000020E9F73197AF01461B570BDC01ED91B4
:1006B000FC910280F381E02D09948F929F92AF927A
:1006C000BF92EF92FF920F931F93CF93DF93CDB71B
:1006D000DEB7A1970FB6F894DEBF0FBECDBF7C0189
:1006E000FA01CB0119A2223008F42AE08E010F5D35
:1006F0001F4F822E912CB12CA12CBF01A50194017A
:100700000E94EC08F901CA016A300CF5605DD8015D
:100710006E938D01232B242B252B79F790E080E01D
:10072000109721F0BD01C7010E944E03A1960FB69C
:10073000F894DEBF0FBECDBFDF91CF911F910F9117
:10074000FF90EF90BF90AF909F908F900895695C5D
:10075000DECFCF92DF92EF92FF92CF93DF936C01C7
:10076000990FEE08FF08F7FE1BC06DE289E292E0E8
:100770000E94A001EC0144275527BA014C195D09DC
:100780006E097F092AE089E292E00E945D038C0FE6
:100790009D1FDF91CF91FF90EF90DF90CF90089554
:1007A0002AE0B701A60189E292E0DF91CF91FF90A4
:1007B000EF90DF90CF900C945D038F929F92AF9259
:1007C000BF92CF92DF92EF92FF920F931F93CF933E
:1007D000DF937C01EB016C0182E0C80ED11C470164
:1007E000E5E08E0E911C10E000E0F60141916F01F2
:1007F00050E070E060E02AE0CE010E945D035C0101
:10080000E881F9810190F081E02D6EE2CE01099539
:100810008A0D9B1D080F191FC814D90431F7F70161
:10082000458150E070E060E02AE0CE010E945D0367
:10083000800F911FDF91CF911F910F91FF90EF904B
:10084000DF90CF90BF90AF909F908F900895CF93FF
:10085000DF93C8E6D0E0FE016491662339F089E2B7
:1008600092E00E94A0012196892BA9F768E471E02B
:1008700089E292E00E944E03989590E080E0DF913B
:10088000CF910895CF93DF93BC0189E292E00E945B
:100890004E03EC0168E471E089E292E00E944E03AD
:1008A0008C0F9D1FDF91CF9108950F931F93CF93CE
:1008B000DF93CDB7DEB7C650D4400FB6F894DEBF95
:1008C0000FBECDBF0091190210911A0260911B0258
:1008D00070911C024091210250912202209123022A
:1008E00030912402C801E4E0880F991FEA95E1F7EE
:1008F0008071FB01A3E0EE0FFF1FAA95E1F7E870FE
:100900008E2B8062FA01EE0FFF1FEE0FFF1FE470C7
:100910008E2BF901EE0FFF1FE2708E2B89838AE088
:100920008A83EBE4F1E0DE01139601900D928A9543
:10093000E1F70130110509F071C0672B09F06EC0B5
:1009400080911D0290911E02092E000CAA0BBB0B78
:10095000BD87AE879F87888B00E110E0413051054D
:1009600011F5232B01F58091250290912602092E85
:10097000000CAA0BBB0BE1E0F0E0EC0FFD1FE00F59
:10098000F11FB083FE01E00FF11FA283E3E0F0E06E
:10099000EC0FFD1FE00FF11F9083FE01E00FF11F30
:1009A00084830C5F1F4F86E491E0CF5FDB4F998318
:1009B0008883C150D4408091F7029091F802A091B1
:1009C000F902B091FA02CD5FDB4F88839983AA8345
:1009D000BB83C350D44049E350E3BE016F5F7B4FFC
:1009E0008AED92E00E94F602A801BE016F5F7F4F80
:1009F0008AED92E00E94AC028AED92E00E94EB0246
:100A000081E090E0CA5FDB4F0FB6F894DEBF0FBE07
:100A1000CDBFDF91CF911F910F9108950CE010E0B1
:100A20009DCF1F920F920FB60F9211242F933F93D9
:100A30008F939F93AF93BF93809111029091120275
:100A4000A0911302B09114023091100223E0230F01
:100A50002D3758F50196A11DB11D209310028093EA
:100A6000110290931202A0931302B093140280918A
:100A7000150290911602A0911702B09118020196EA
:100A8000A11DB11D8093150290931602A093170229
:100A9000B0931802BF91AF919F918F913F912F9189
:100AA0000F900FBE0F901F90189526E8230F029607
:100AB000A11DB11DD2CF1F920F920FB60F9211241C
:100AC0002F933F934F935F936F937F938F939F9356
:100AD000AF93BF93EF93FF9389E292E00E947E0170
:100AE000FF91EF91BF91AF919F918F917F916F9106
:100AF0005F914F913F912F910F900FBE0F901F90DC
:100B000018951F920F920FB60F9211242F938F9367
:100B10009F93EF93FF93E0913902F0913A02808125
:100B2000E0913F02F091400282FD1BC090818091D4
:100B300042028F5F8F7320914302821741F0E09150
:100B40004202F0E0E75DFD4F958F80934202FF91F6
:100B5000EF919F918F912F910F900FBE0F901F904B
:100B600018958081F4CFCF92DF92EF92FF92CF93CE
:100B7000DF93E9E2F2E01382128288EEC82E83E06E
:100B8000D82EE12CF12CC482D582E682F7828CE04B
:100B900091E09183808385EC90E09587848784EC55
:100BA00090E09787868780EC90E0918B808B81EC3A
:100BB00090E0938B828B82EC90E0958B848B86EC1B
:100BC00090E0978B868B118E128E138E148EE6EC2E
:100BD000F2E0C6E4D1E0D183C08312821382148292
:100BE0001582E4EDF2E0D183C08312821382148275
:100BF0001582ECECF2E0D183C0831282138214825E
:100C00001582EBEFF2E0D183C0831282138214824B
:100C100015820E946208E5EFF2E0D183C08380EC88
:100C2000828388EA838314828FE28583EAEDF2E08F
:100C300013821282C482D582E682F7828EE191E02D
:100C400091838083D787C687108A118A128A138A74
:100C500084E0808FE1E0F3E0D183C08312821382CD
:100C600014821582E7E0F3E0D183C08312821382FD
:100C700014821582DF91CF91FF90EF90DF90CF909B
:100C80000895789484B5826084BD84B5816084BD04
:100C900085B5826085BD85B5816085BD80916E001A
:100CA000816080936E00109281008091810082604B
:100CB0008093810080918100816080938100809188
:100CC00080008160809380008091B1008460809377
:100CD000B1008091B00081608093B00080917A0073
:100CE000846080937A0080917A00826080937A0099
:100CF00080917A00816080937A0080917A00806888
:100D000080937A001092C100E0913902F0913A028A
:100D100082E08083E0913502F09136021082E0910A
:100D20003702F09138028FEC808310924102E091FB
:100D30003D02F0913E0286E08083E0913B02F0911B
:100D40003C02808180618083E0913B02F0913C0213
:100D5000808188608083E0913B02F0913C02808139
:100D600080688083E0913B02F0913C0280818F7D1E
:100D70008083EDEEF0E02491E9EDF0E084918823AA
:100D800099F090E0880F991FFC01E653FF4FA59161
:100D9000B491FC01E054FF4F859194918FB7F89482
:100DA000EC91E22BEC938FBF88E08093CE0280938E
:100DB000CF028093D0028093D1026CED75E080E089
:100DC00090E00E94CE0046B787B728B739B790E0C9
:100DD000B0E0A0E0DC0199278827832B922B0E94AA
:100DE0000B0886E591E00E9442040E94620828EE0A
:100DF00033E040E050E00E94BA0868577C4E8F4FC5
:100E00009F4F8AED92E00E94220350E0C52E50E0F1
:100E1000D52E01E010E065E0E62EF12C9CB38DB3F9
:100E200089279827892790930F0280930E020E94AA
:100E3000A90369E471E089E292E00E944E03C09147
:100E40000E02D0910F0280910C0290910D02C817F2
:100E5000D90709F488C0C130D10509F05BC062E749
:100E600071E089E292E00E944E0380910E0290911F
:100E70000F0290930D0280930C02D0931A02C0933C
:100E8000190210921C0210921B02F0921E02E092B4
:100E90001D02D0932202C0932102109224021092CC
:100EA0002302D0932602C09325020E945504019785
:100EB000D9F465E971E089E292E00E944E038091E5
:100EC0001D0290911E020E94A90361EB71E089E26C
:100ED00092E00E944E0380912502909126020E948A
:100EE000A90384EB91E002C087EB91E00E944204E9
:100EF0006CE271E080E090E00E94CE00C114D10469
:100F000009F48CCF0E946A01882309F487CF0E94DC
:100F1000000084CFCD2B39F56EEC71E089E292E0D0
:100F20000E944E0380910E0290910F0290930D0249
:100F300080930C0210931A020093190210921C0263
:100F400010921B02F0921E02E0921D0210932202E8
:100F50000093210210922402109223021092260282
:100F600010922502A2CF61EF71E089E292E00E9427
:100F70004E03BECF8F929F92AF92BF92CF92DF92DD
:100F8000EF92FF92CF93DF93EC01688179818A81A0
:100F90009B81611571058105910521F464E279ED6C
:100FA0008BE597E02DE133EF41E050E00E94BA0875
:100FB00049015A019B01AC01A7EAB1E40E94D9089A
:100FC0006B017C01ACEEB4EFA50194010E94E7082F
:100FD000DC01CB018C0D9D1DAE1DBF1DB7FF03C0F5
:100FE0000197A109B04888839983AA83BB839F771F
:100FF000DF91CF91FF90EF90DF90CF90BF90AF90B7
:101000009F908F9008950E94BA07089580E091E024
:101010000E94BA070895B0E0A0E080930001909389
:101020000101A0930201B093030108958F929F9252
:10103000AF92BF92CF92DF92EF92FF92CF93DF9366
:10104000EC01688179818A819B8161157105810537
:10105000910521F464E279ED8BE597E02DE133EF22
:1010600041E050E00E94BA0849015A019B01AC01DD
:10107000A7EAB1E40E94D9086B017C01ACEEB4EFA1
:10108000A50194010E94E708C60ED71EE81EF91EAE
:10109000F7FE06C081E0C81AD108E10880E8F80A26
:1010A000C882D982EA82FB82C701B6019F77DF91AD
:1010B000CF91FF90EF90DF90CF90BF90AF909F9037
:1010C0008F9008958F929F92AF92BF92CF92DF92AE
:1010D000EF92FF92609104017091050180910601E9
:1010E00090910701611571058105910521F464E274
:1010F00079ED8BE597E02DE133EF41E050E00E9480
:10110000BA0849015A019B01AC01A7EAB1E40E9467
:10111000D9086B017C01ACEEB4EFA50194010E94EB
:10112000E708C60ED71EE81EF91EF7FE06C081E0CE
:10113000C81AD108E10880E8F80AC0920401D092E8
:101140000501E0920601F0920701C701B6019F7701
:10115000FF90EF90DF90CF90BF90AF909F908F90D7
:1011600008956093040170930501809306019093A4
:1011700007010895052E97FB1EF400940E94D108E4
:1011800057FD07D00E94EC0807FC03D04EF40C94E6
:10119000D10850954095309521953F4F4F4F5F4F67
:1011A000089590958095709561957F4F8F4F9F4FD3
:1011B00008950E940E09A59F900DB49F900DA49FC5
:1011C000800D911D11240895B7FF0C94D9080E9439
:1011D000D908821B930B0895A1E21A2EAA1BBB1BF0
:1011E000FD010DC0AA1FBB1FEE1FFF1FA217B307F3
:1011F000E407F50720F0A21BB30BE40BF50B661F09
:10120000771F881F991F1A9469F7609570958095CC
:1012100090959B01AC01BD01CF010895A29FB00143
:10122000B39FC001A39F700D811D1124911DB29F1A
:10123000700D811D1124911D0895EE0FFF1F059063
:0A124000F491E02D0994F894FFCF1B
:10124A00010000000100000000000000A0010001F0
:10125A002D01ED015E013C01500100000000D502A4
:10126A00AC0244030F021B035502190222031A039C
:10127A00F6022704EB0272021C024703340330030E
:10128A000D0200000000DD030D0A0073656E73692C
:10129A006E6752657100506F6C61637A6F6E6F2072
:1012AA007A207369656369612045746865726E6541
:1012BA00740057796B7279746F207A6D69616E6503
:1012CA0020776172746F736369207A2030206E61AF
:1012DA002031210A004B726F746B61207779736C2D
:1012EA00616E6120706F6D79736C6E69653A205B0F
:1012FA00002C20005D0A00426C61642077797379C2
:10130A006C616E6961206B726F746B690A00577940
:10131A006B7279746F207A6D69616E65207761727C
:10132A00746F736369207A2031206E612030210A3C
:10133A0000576172746F7363206E6965207A6D69F4
:0C134A00656E696C61207369652E0A00F5
:00000001FF
