:100000000C9461000C9489000C9489000C94890074
:100010000C9489000C9489000C9489000C9489003C
:100020000C9489000C9489000C9489000C9489002C
:100030000C9489000C9489000C9489000C9489001C
:100040000C946F050C9489000C94DF050C94B90591
:100050000C9489000C9489000C9489000C948900FC
:100060000C9489000C9489005A7375744574686502
:10007000726E65745544503A3A626567696E5061B4
:10008000636B657428636F6E73742063686172209C
:100090002A686F73742C2075696E7431365F742012
:1000A000706F7274293B206973206E6F74207375B2
:1000B00070706F727465642120536F7272792100C1
:1000C000110611241FBECFEFD8E0DEBFCDBF11E077
:1000D000A0E0B1E0E4EBF8E102C005900D92A23B94
:1000E000B107D9F722E0A2EBB1E001C01D92A73C15
:1000F000B207E1F710E0C1E6D0E004C02197FE01AD
:100100000E945509C036D107C9F70E949F060C947A
:10011000580C0C9400003FB7F8948091C90190915D
:10012000CA01A091CB01B091CC0126B5A89B05C016
:100130002F3F19F00196A11DB11D3FBFBA2FA92F66
:10014000982F8827BC01CD01620F711D811D911D63
:1001500042E0660F771F881F991F4A95D1F70895CF
:100160008F929F92AF92BF92CF92DF92EF92FF92C7
:100170004B015C010E948B006B017C010E948B0093
:100180006C197D098E099F09683E734081059105B0
:10019000A8F321E0821A9108A108B10888EEC80EE0
:1001A00083E0D81EE11CF11C81149104A104B10468
:1001B00029F7FF90EF90DF90CF90BF90AF909F9086
:1001C0008F900895AF92BF92CF92DF92EF92FF92FD
:1001D0000F931F93CF93DF936C017B018B01040F6F
:1001E000151FEB015E01AE18BF08C017D10759F00B
:1001F0006991D601ED91FC910190F081E02DC6014D
:100200000995892B79F7C501DF91CF911F910F9146
:10021000FF90EF90DF90CF90BF90AF900895FC01DA
:10022000538D448D252F30E0842F90E0821B930B5B
:10023000541710F0CF96089501970895FC01918D01
:10024000828D981761F0A28DAE0FBF2FB11D5D9604
:100250008C91928D9F5F9F73928F90E008958FEFA6
:100260009FEF0895FC01918D828D981731F0828D5A
:10027000E80FF11D858D90E008958FEF9FEF0895B1
:10028000FC01918D228D892F90E0805C9F4F821B15
:1002900091098F73992708958DED91E00E94400197
:1002A00021E0892B09F420E0822F089580E090E07E
:1002B000892B29F00E944C0181110C9400000895B3
:1002C000FC01A48DA80FB92FB11DA35ABF4F2C91CB
:1002D000848D90E001968F739927848FA689B789C2
:1002E0002C93A089B1898C91837080648C93938DB9
:1002F000848D981306C00288F389E02D80818F7D5C
:1003000080830895EF92FF920F931F93CF93DF9313
:10031000EC0181E0888F9B8D8C8D98131AC0E88941
:10032000F989808185FF15C09FB7F894EE89FF8910
:100330006083E889F98980818370806480839FBFAE
:1003400081E090E0DF91CF911F910F91FF90EF90AE
:100350000895F62E0B8D10E00F5F1F4F0F731127BE
:10036000E02E8C8D8E110CC00FB607FCFACFE889F9
:10037000F989808185FFF5CFCE010E946001F1CF20
:10038000EB8DEC0FFD2FF11DE35AFF4FF0829FB76D
:10039000F8940B8FEA89FB8980818062CFCFCF935D
:1003A000DF93EC01888D8823B9F0AA89BB89E8899D
:1003B000F9898C9185FD03C0808186FD0DC00FB643
:1003C00007FCF7CF8C9185FFF2CF808185FFEDCFC1
:1003D000CE010E946001E9CFDF91CF91089581E0C5
:1003E000089587E08CBF95EE9BBF1ABE8CBF86EE4A
:1003F0008BBF1ABE089590E080E0089597E09CBFFF
:1004000087EE8BBF2AB79CBF88EE8BBF8AB7322F8F
:10041000282F9CBF85EE8BBF8AB79CBF96EE9BBFF3
:100420009AB7892798278927821B930B4817590762
:1004300008F4CA01A9014751584FFB01DB01A80F7D
:10044000B91FEA17FB0739F05CBF4BBF6AB761936E
:100450004F5F5F4FF6CF280F391F47E04CBF57EE75
:100460005BBF3ABF4CBF38EE3BBF2ABF0895CF9366
:10047000DF931F92CDB7DEB7DC01ED91FC91028CCA
:10048000F38DE02D41E050E0BE016F5F7F4F099595
:100490001816190634F4898190E00F90DF91CF91FE
:1004A00008958FEF9FEFF9CFFC0197E09CBF85EE99
:1004B0008BBF8AB79CBF26EE2BBF6AB79CBF27EEC7
:1004C0002BBF2AB79CBF98EE9BBF3AB71CBE90E1EA
:1004D0009BBF9AB71CBE4FE04BBF4AB71CBE5EE045
:1004E0005BBF5AB71CBE7DE07BBF7AB7708B518B68
:1004F000428B938B1CBE91E19BBF4AB71CBE92E11D
:100500009BBF9AB7542F492F558B448B982F862F1A
:10051000232732272327821B930B08951CBE83E1D8
:100520008BBF8AB71CBE94E19BBF9AB789279827D7
:100530008927FB019C012B5E3F4FDB01A40FB51FF8
:10054000EA17FB0739F061913CBF2BBF6ABF2F5FF1
:100550003F4FF6CF480F591F1CBE83E18BBF5ABFD8
:100560001CBE84E18BBF4ABF90E080E00895CF932A
:10057000DF931F92CDB7DEB76983DC01ED91FC916B
:100580000280F381E02D41E050E0BE016F5F7F4FBC
:1005900009950F90DF91CF9108951CBE1BBE8FEF80
:1005A0008ABF1CBE1BBE82E08ABF90E080E0089537
:1005B000FB0132812381948185811CBE1BBE61E0D9
:1005C0006ABF1CBE6DE06BBF3ABF1CBE3EE03BBFC6
:1005D0002ABF1CBE2FE02BBF9ABF1CBE90E19BBF61
:1005E0008ABF1CBE81E18BBF5ABF1CBE82E18BBF9C
:1005F0004ABF81E090E008950895DC01ED91FC91FF
:10060000008CF18DE02D09941CBE8BE08BBF7ABF6E
:100610001CBE8CE08BBF6ABF1CBE1BBE83E08ABFC2
:1006200081E00895FC0184899589089526E431E0EC
:10063000FC0131832083FB014089518962897389E0
:10064000FC014283538364837583089590E080E0C6
:100650000895DC01ED91FC91028CF38DE02D09945D
:10066000682F8DED91E00E94820121E030E0892B1E
:1006700011F030E020E0C9010895FB010190002055
:10068000E9F73197AF01461B570BDC01ED91FC9167
:100690000280F381E02D09948F929F92AF92BF92D6
:1006A000EF92FF920F931F93CF93DF93CDB7DEB7F7
:1006B000A1970FB6F894DEBF0FBECDBF7C01FA0143
:1006C000CB0119A2223008F42AE08E010F5D1F4FE2
:1006D000822E912CB12CA12CBF01A50194010E9466
:1006E0002409F901CA016A300CF5605DD8016E93E6
:1006F0008D01232B242B252B79F790E080E0109798
:1007000021F0BD01C7010E943D03A1960FB6F894E8
:10071000DEBF0FBECDBFDF91CF911F910F91FF9034
:10072000EF90BF90AF909F908F900895695CDECF5F
:10073000CF93DF93C8E6D0E0FE016491662339F0E1
:100740008DED91E00E9482012196892BA9F768E442
:1007500071E08DED91E00E943D03989590E080E07E
:10076000DF91CF9108952F923F924F925F926F92B7
:100770007F928F929F92AF92BF92CF92DF92EF9231
:10078000FF920F931F93CF93DF93CDB7DEB7C05285
:10079000D4400FB6F894DEBF0FBECDBF9E012F5FD1
:1007A0003F4F590120E034E0F501A9011192415079
:1007B0005040E1F72091CD013091CE01F4E0220FBD
:1007C000331FFA95E1F720714091CF015091D0018C
:1007D000A3E0440F551FAA95E1F74870242B20642D
:1007E000AC0141505109B5E0440F551FBA95E1F7EE
:1007F0004072242B8230910594F04091D5015091A4
:10080000D601440F551F440F551F44706091D70106
:100810007091D801660F771F6270462B242B2983B5
:100820002AE02A83EBE4F1E0DE01139601900D92B9
:100830002A95E1F7EDECF1E030E020E04CE0E42E29
:10084000F12C281739077CF5408151814130510541
:1008500031F542815381452B11F544815581052E97
:10086000000C660B770BD501AE0DBF1D7C93A2E08B
:10087000B0E0AC0FBD1FAE0DBF1D6C93A3E0B0E0A8
:10088000AC0FBD1FAE0DBF1D5C93A4E0B0E0AC0F7C
:10089000BD1FAE0DBF1D4C9354E0E50EF11C2F5F44
:1008A0003F4F3896CECF8E010F5F1B4F86E491E00D
:1008B000F801918380838091AB029091AC02A0916A
:1008C000AD02B091AE0282839383A483B58349E3E2
:1008D00050E3B8018EE892E00E94D802A701B5016A
:1008E0008EE892E00E948E028EE892E00E94CD0295
:1008F00080E094E0F5019C01119221503040E1F735
:100900006CEB72E080E090E00E94B0008EE892E034
:100910000E945402D12CC12C181619060CF076C076
:1009200040E054E0B5018EE892E00E9429038A81FC
:10093000282F082E000C330BDE011396F801AF01AF
:10094000401B510B421753071CF49D919193F7CF15
:1009500087FD80E0082E000C990BAC014E5F5F4FC5
:10096000020F131FF80110822981022E000C330B95
:1009700025FBCC24C0F8D12C24FB882480F8912CB2
:100980009092CE018092CD0123FB662460F8712CF9
:100990007092D0016092CF01892871F0672861F4CC
:1009A0004C5F5F4FFE01E80FF91F65818681962F2E
:1009B0009093D2018093D101C114D10409F441C0B4
:1009C00022FB442440F8512C5092D6014092D5018C
:1009D00021FB222420F8312C3092D8012092D7011B
:1009E0004528A1F0232891F4E3E0F0E0EC0FFD1F8F
:1009F000E40FF51F80814C0F5D1FFA019481892758
:100A0000982789279093DA018093D901C601C05EA7
:100A1000DB4F0FB6F894DEBF0FBECDBFDF91CF9195
:100A20001F910F91FF90EF90DF90CF90BF90AF900C
:100A30009F908F907F906F905F904F903F902F90FE
:100A40000895CC24C394D12CE1CF8F929F92AF9282
:100A5000BF92CF92DF92EF92FF920F931F93CF93AB
:100A6000DF937C01EB016C0182E0C80ED11C4701D1
:100A7000E5E08E0E911C10E000E0F60141916F015F
:100A800050E070E060E02AE0CE010E944C035C017F
:100A9000E881F9810190F081E02D6EE2CE010995A7
:100AA0008A0D9B1D080F191FC814D90431F7F701CF
:100AB000458150E070E060E02AE0CE010E944C03E6
:100AC000800F911FDF91CF911F910F91FF90EF90B9
:100AD000DF90CF90BF90AF909F908F9008951F921E
:100AE0000F920FB60F9211242F933F938F939F93E2
:100AF000AF93BF938091C5019091C601A091C701AA
:100B0000B091C8013091C40123E0230F2D3758F56F
:100B10000196A11DB11D2093C4018093C50190933E
:100B2000C601A093C701B093C8018091C9019091FB
:100B3000CA01A091CB01B091CC010196A11DB11DBC
:100B40008093C9019093CA01A093CB01B093CC01CB
:100B5000BF91AF919F918F913F912F910F900FBEB9
:100B60000F901F90189526E8230F0296A11DB11D26
:100B7000D2CF1F920F920FB60F9211242F933F9353
:100B80004F935F936F937F938F939F93AF93BF9395
:100B9000EF93FF938DED91E00E946001FF91EF9143
:100BA000BF91AF919F918F917F916F915F914F9185
:100BB0003F912F910F900FBE0F901F9018951F928D
:100BC0000F920FB60F9211242F938F939F93EF9351
:100BD000FF93E091ED01F091EE018081E091F3014E
:100BE000F091F40182FD1BC090818091F6018F5F2E
:100BF0008F732091F701821741F0E091F601F0E048
:100C0000E352FE4F958F8093F601FF91EF919F91F4
:100C10008F912F910F900FBE0F901F90189580818C
:100C2000F4CFCF92DF92EF92FF92CF93DF93EDED6F
:100C3000F1E01382128288EEC82E83E0D82EE12CD8
:100C4000F12CC482D582E682F7828CE091E0918318
:100C5000808385EC90E09587848784EC90E097878B
:100C6000868780EC90E0918B808B81EC90E0938B79
:100C7000828B82EC90E0958B848B86EC90E0978B56
:100C8000868B118E128E138E148EEAE7F2E0C6E484
:100C9000D1E0D183C0831282138214821582E8E8E6
:100CA000F2E0D183C0831282138214821582E0E8BD
:100CB000F2E0D183C0831282138214821582EFEA9C
:100CC000F2E0D183C08312821382148215820E94C3
:100CD0009A08E9EAF2E0D183C08380EC828388EA53
:100CE000838314828FE28583EEE8F2E0138212821E
:100CF000C482D582E682F7828EE191E0918380837F
:100D0000D787C687108A118A128A138A84E0808F57
:100D1000E5EBF2E0D183C083128213821482158244
:100D2000EBEBF2E0D183C08312821382148215822E
:100D3000DF91CF91FF90EF90DF90CF90089578945E
:100D400084B5826084BD84B5816084BD85B58260D0
:100D500085BD85B5816085BD80916E008160809381
:100D60006E001092810080918100826080938100EA
:100D700080918100816080938100809180008160FA
:100D8000809380008091B10084608093B100809155
:100D9000B00081608093B00080917A00846080937D
:100DA0007A0080917A00826080937A0080917A0044
:100DB000816080937A0080917A00806880937A00C5
:100DC0001092C100E091ED01F091EE0192E090836C
:100DD000E091E901F091EA011082E091EB01F091DC
:100DE000EC018FEC80831092F501E091F101F0911C
:100DF000F20186E08083E091EF01F091F0018081C3
:100E000080618083E091EF01F091F0018081886042
:100E10008083E091EF01F091F00180818068808310
:100E2000E091EF01F091F00180818F7D808320E3DC
:100E300033E03093BB012093BA011092BD011092B0
:100E4000BC019093B5011092BF011092BE0182EBDC
:100E500091E09093C4028093C30288E08093820261
:100E60008093830280938402809385026CED75E009
:100E700080E090E00E94B00046B787B728B739B746
:100E800090E0B0E0A0E0DC0199278827832B922B2B
:100E90000E94430866E571E08DED91E00E943D03FC
:100EA00068E471E08DED91E00E943D030E949A0894
:100EB00028EE33E040E050E00E94F20868577C4E94
:100EC0008F4F9F4F8EE892E00E940403C2E7D1E06B
:100ED00065E7C62E61E0D62E0AE711E076E9E72E37
:100EE00071E0F72EE0E0AE2EE0E0BE2E82E090E072
:100EF0000E94B3030197C1F58BE590E00E94710950
:100F00008091D2018F938091D1018F93DF93CF9302
:100F10000E945B09DF92CF920E945B098091DA0107
:100F20008F938091D9018F93DF93CF930E945B09B8
:100F300088E791E00E9478098091D9019091DA01C7
:100F40002DB73EB7265F3F4F0FB6F8943EBF0FBE9A
:100F50002DBF0097D9F58091C2019091C3010196F0
:100F60009093C3018093C2018091C3018F938091BC
:100F7000C2018F931F930F930E945B098091C1015F
:100F80008F938091C0018F93FF92EF920E945B0933
:100F90008AE090E00E94710968EC70E080E090E0E7
:100FA0000E94B0008DB79EB708960FB6F8949EBF0A
:100FB0000FBE8DBFA114B10409F498CF0E944C015B
:100FC000882309F493CF0E94000090CF019761F627
:100FD0008091C0019091C10101969093C1018093CD
:100FE000C001C2CF8F929F92AF92BF92CF92DF92F9
:100FF000EF92FF92CF93DF93EC01688179818A8130
:101000009B81611571058105910521F464E279EDFB
:101010008BE597E02DE133EF41E050E00E94F208CC
:1010200049015A019B01AC01A7EAB1E40E941109F0
:101030006B017C01ACEEB4EFA50194010E941F0985
:10104000DC01CB018C0D9D1DAE1DBF1DB7FF03C084
:101050000197A109B04888839983AA83BB839F77AE
:10106000DF91CF91FF90EF90DF90CF90BF90AF9046
:101070009F908F9008950E94F207089580E091E07C
:101080000E94F2070895B0E0A0E0809300019093E1
:101090000101A0930201B093030108958F929F92E2
:1010A000AF92BF92CF92DF92EF92FF92CF93DF93F6
:1010B000EC01688179818A819B81611571058105C7
:1010C000910521F464E279ED8BE597E02DE133EFB2
:1010D00041E050E00E94F20849015A019B01AC0135
:1010E000A7EAB1E40E9411096B017C01ACEEB4EFF8
:1010F000A50194010E941F09C60ED71EE81EF91E05
:10110000F7FE06C081E0C81AD108E10880E8F80AB5
:10111000C882D982EA82FB82C701B6019F77DF913C
:10112000CF91FF90EF90DF90CF90BF90AF909F90C6
:101130008F9008958F929F92AF92BF92CF92DF923D
:10114000EF92FF9260910401709105018091060178
:1011500090910701611571058105910521F464E203
:1011600079ED8BE597E02DE133EF41E050E00E940F
:10117000F20849015A019B01AC01A7EAB1E40E94BF
:1011800011096B017C01ACEEB4EFA50194010E9442
:101190001F09C60ED71EE81EF91EF7FE06C081E025
:1011A000C81AD108E10880E8F80AC0920401D09278
:1011B0000501E0920601F0920701C701B6019F7791
:1011C000FF90EF90DF90CF90BF90AF909F908F9067
:1011D0000895609304017093050180930601909334
:1011E00007010895052E97FB1EF400940E9409093B
:1011F00057FD07D00E94240907FC03D04EF40C943D
:10120000090950954095309521953F4F4F4F5F4FBD
:10121000089590958095709561957F4F8F4F9F4F62
:1012200008950E944609A59F900DB49F900DA49F1C
:10123000800D911D11240895B7FF0C9411090E948F
:101240001109821B930B0895A1E21A2EAA1BBB1B46
:10125000FD010DC0AA1FBB1FEE1FFF1FA217B30782
:10126000E407F50720F0A21BB30BE40BF50B661F98
:10127000771F881F991F1A9469F76095709580955C
:1012800090959B01AC01BD01CF010895A29FB001D3
:10129000B39FC001A39F700D811D1124911DB29FAA
:1012A000700D811D1124911D0895EE0FFF1F0590F3
:1012B000F491E02D0994B0E0A0E0E1E6F9E00C94AF
:1012C000310CAE014B5F5F4FFA0161917191AF013B
:1012D0008091C3029091C4020E94A309E2E00C94A1
:1012E0004D0C6091C3027091C4020E94930B08954B
:1012F0000F931F93CF93DF93E091C302F091C40249
:101300002381EC0110E000E021FD08C00FEF1FEF8A
:1013100014C00995892B11F00FEF1FEF899160918F
:10132000C3027091C402DB011896ED91FC9181110A
:10133000F0CF8AE00995892B49F7C801DF91CF9159
:101340001F910F910895ABE0B0E0E9EAF9E00C9449
:10135000210C7C013B018A01FC01178216828381EA
:1013600081FFC8C1CE0101965C01F7019381F301B1
:1013700093FD859193FF81913F01882309F453C127
:10138000853239F493FD859193FF81913F01853238
:1013900029F4B70190E00E94930BE7CF912C212C08
:1013A000312CFFE1F31538F08B3211F190F48032DB
:1013B00009F1833229F137FC3CC020ED280F2A3097
:1013C00050F536FE20C08AE0989E200D1124922E02
:1013D00006C08D3291F0803371F7689430F8F301D4
:1013E00093FD859193FF81913F018111DACF21C057
:1013F000689431F8689432F8F2CF689433F8EFCFFC
:10140000689434F8ECCFEAE02E9E200D1124222EB1
:10141000689435F8E4CF8E3229F436FC04C1689420
:1014200036F8DDCF8C3619F4689437F8D8CF883683
:10143000B1F2982F9F7D95549330E0F08336A1F15F
:101440008337C1F1833509F063C02801F2E04F0E04
:10145000511CF801C080D180692D70E036FC02C0BB
:101460006FEF7FEFC6010E947D0B4C01689437F847
:1014700082010AC00C5F1F4FFFE3F9838824839425
:10148000912C6501E89437F833FE2DC0522C81145D
:10149000910471F5552009F468CFB70180E290E01E
:1014A0000E94930B5A94F6CFF801808189830E5FD6
:1014B0001F4FE4CF2801F2E04F0E511CF801C0800D
:1014C000D180692D70E036FC02C06FEF7FEFC6015E
:1014D0000E94880B4C018201D5CFB70180E290E0D9
:1014E0000E94930B2A942814190409F0B0F7CECF68
:1014F000F60137FC859137FE81916F01B70190E0CD
:101500000E94930B51105A94F1E08F1A9108BFCFAB
:10151000843619F0893609F077C0F80137FE6BC0C0
:1015200060817181828193810C5F1F4FF32DFF7663
:101530003F2E97FF09C090958095709561957F4FDC
:101540008F4F9F4F689437F82AE030E0A5010E9442
:10155000C30BC82ECA188C2C432C36FE0CC0E89442
:1015600040F8C91440F434FE05C032FC03C0F32D2A
:10157000FE7E4F2E892C44FE95C0FE01EC0DF11D20
:101580008081803309F087C0242D297E422E842D4E
:101590008870582E43FC95C040FE8FC09C2C82144E
:1015A00018F42C0C922C981844FE91C0B70180E3DB
:1015B00090E00E94930B42FE09C088E790E041FE54
:1015C00002C088E590E0B7010E94930BC91408F4AB
:1015D0008AC0CA94D12C9FEFC91AD90ACA0CDB1C45
:1015E000F60182916F01B70190E00E94930BAC1459
:1015F000BD04B1F74FCF60817181072E000C880BBD
:10160000990B0E5F1F4F92CFD32CE894D4F82AE0A9
:1016100030E0853739F1232D297FD22E8F3601F125
:1016200048F48835A9F0F701868197812B96E2E18D
:101630000C943D0C803749F08837A9F7D4FE02C0DE
:101640006894D2F820E130E00DC06894D4F8F6CF69
:1016500034FE03C0822F8660D82E20E132E002C023
:1016600028E030E0F801D7FE0FC0608171818281EF
:1016700093810C5F1F4FA5010E94C30BC82ECA188F
:101680003D2CE89437F867CF6081718190E080E06D
:101690000E5F1F4FF0CF42FC02C0839478CF83943B
:1016A000839475CF842D867809F471CFF6CFB70176
:1016B00080E290E00E94930B83948214C0F3512C3B
:1016C00073CF522C5818821408F46ECFF8CF842DA3
:1016D000867809F47BCF8BE241FE80E247FC8DE205
:1016E000B70190E071CFB70180E390E00E94930BC7
:1016F0009A946CCF8FEF9FEF99CFFC0105906150CA
:1017000070400110D8F7809590958E0F9F1F089517
:10171000FC016150704001900110D8F780959095C0
:101720008E0F9F1F08950F931F93CF93DF93182F52
:10173000092FEB018B8181FD09C01FEF0FEF812F76
:10174000902FDF91CF911F910F91089582FF14C0C8
:101750002E813F818C819D81281739073CF4E881D7
:10176000F981CF0101969983888310838E819F81AF
:1017700001969F838E83E3CFE885F985812F0995B4
:10178000892BA1F3DACFFA01AA27283051F12031B1
:1017900081F1E8946F936E7F6E5F7F4F8F4F9F4F05
:1017A000AF4FB1E03ED0B4E03CD0670F781F891F47
:1017B0009A1FA11D680F791F8A1F911DA11D6A0F15
:1017C000711D811D911DA11D20D009F468943F91C8
:1017D0002AE0269F11243019305D3193DEF6CF01C7
:1017E0000895462F4770405D4193B3E00FD0C9F78D
:1017F000F6CF462F4F70405D4A3318F0495D31FDFA
:101800004052419302D0A9F7EACFB4E0A69597954C
:10181000879577956795BA95C9F700976105710522
:1018200008959B01AC010A2E06945795479537956C
:101830002795BA95C9F7620F731F841F951FA01DC6
:1018400008952F923F924F925F926F927F928F9264
:101850009F92AF92BF92CF92DF92EF92FF920F933F
:101860001F93CF93DF93CDB7DEB7CA1BDB0B0FB649
:10187000F894DEBF0FBECDBF09942A883988488806
:101880005F846E847D848C849B84AA84B984C8849C
:10189000DF80EE80FD800C811B81AA81B981CE0F93
:1018A000D11D0FB6F894DEBF0FBECDBFED01089578
:0418B000F894FFCFDA
:1018B4000100000001000000000000008201E200BD
:1018C4000F01CF0140011E01320100000000B702E8
:1018D4008E022603F101FD023702FB010403FC0220
:1018E400D8029803CD025402FE0129031603120301
:1018F400EF010000000025050D0A006D616E6167AF
:10190400657252657100506F6C61637A6F6E6F20FF
:101914007A207369656369612045746865726E65D0
:1019240074002564002C20005D00496C6F736320F3
:101934007A6D69616E207374616E75206E612030FA
:101944003A2025640A00496C6F7363207A6D6961DB
:101954006E207374616E75206E6120313A202564A7
:021964000A0077
:00000001FF
