:100000000C9461000C9489000C9489000C94890074
:100010000C9489000C9489000C9489000C9489003C
:100020000C9489000C9489000C9489000C9489002C
:100030000C9489000C9489000C9489000C9489001C
:100040000C94D2050C9489000C9442060C941C0666
:100050000C9489000C9489000C9489000C948900FC
:100060000C9489000C9489005A7375744574686502
:10007000726E65745544503A3A626567696E5061B4
:10008000636B657428636F6E73742063686172209C
:100090002A686F73742C2075696E7431365F742012
:1000A000706F7274293B206973206E6F74207375B2
:1000B00070706F727465642120536F7272792100C1
:1000C000740611241FBECFEFD8E0DEBFCDBF11E014
:1000D000A0E0B1E0E4E0F4E102C005900D92A63F9B
:1000E000B107D9F722E0A6EFB1E001C01D92A73F0A
:1000F000B207E1F710E0C1E6D0E004C02197FE01AD
:100100000E94FA09C036D107C9F70E9402070C9471
:10011000000A0C9400003FB7F89480910902909176
:100120000A02A0910B02B0910C0226B5A89B05C053
:100130002F3F19F00196A11DB11D3FBFBA2FA92F66
:10014000982F8827BC01CD01620F711D811D911D63
:1001500042E0660F771F881F991F4A95D1F70895CF
:100160008F929F92AF92BF92CF92DF92EF92FF92C7
:100170004B015C010E948B006B017C010E948B0093
:100180006C197D098E099F09683E734081059105B0
:10019000A8F321E0821A9108A108B10888EEC80EE0
:1001A00083E0D81EE11CF11C81149104A104B10468
:1001B00029F7FF90EF90DF90CF90BF90AF909F9086
:1001C0008F900895AF92BF92CF92DF92EF92FF92FD
:1001D0000F931F93CF93DF936C017B018B01040F6F
:1001E000151FEB015E01AE18BF08C017D10759F00B
:1001F0006991D601ED91FC910190F081E02DC6014D
:100200000995892B79F7C501DF91CF911F910F9146
:10021000FF90EF90DF90CF90BF90AF900895FC01DA
:10022000538D448D252F30E0842F90E0821B930B5B
:10023000541710F0CF96089501970895FC01918D01
:10024000828D981761F0A28DAE0FBF2FB11D5D9604
:100250008C91928D9F5F9F73928F90E008958FEFA6
:100260009FEF0895FC01918D828D981731F0828D5A
:10027000E80FF11D858D90E008958FEF9FEF0895B1
:10028000FC01918D228D892F90E0805C9F4F821B15
:1002900091098F73992708958DE092E00E944001A3
:1002A00021E0892B09F420E0822F089580E090E07E
:1002B000892B29F00E944C0181110C9400000895B3
:1002C000FC01A48DA80FB92FB11DA35ABF4F2C91CB
:1002D000848D90E001968F739927848FA689B789C2
:1002E0002C93A089B1898C91837080648C93938DB9
:1002F000848D981306C00288F389E02D80818F7D5C
:1003000080830895EF92FF920F931F93CF93DF9313
:10031000EC0181E0888F9B8D8C8D98131AC0E88941
:10032000F989808185FF15C09FB7F894EE89FF8910
:100330006083E889F98980818370806480839FBFAE
:1003400081E090E0DF91CF911F910F91FF90EF90AE
:100350000895F62E0B8D10E00F5F1F4F0F731127BE
:10036000E02E8C8D8E110CC00FB607FCFACFE889F9
:10037000F989808185FFF5CFCE010E946001F1CF20
:10038000EB8DEC0FFD2FF11DE35AFF4FF0829FB76D
:10039000F8940B8FEA89FB8980818062CFCFCF935D
:1003A000DF93EC01888D8823B9F0AA89BB89E8899D
:1003B000F9898C9185FD03C0808186FD0DC00FB643
:1003C00007FCF7CF8C9185FFF2CF808185FFEDCFC1
:1003D000CE010E946001E9CFDF91CF91089581E0C5
:1003E000089587E08CBF95EE9BBF1ABE8CBF86EE4A
:1003F0008BBF1ABE089590E080E0089597E09CBFFF
:1004000087EE8BBF2AB79CBF88EE8BBF8AB7322F8F
:10041000282F9CBF85EE8BBF8AB79CBF96EE9BBFF3
:100420009AB7892798278927821B930B4817590762
:1004300008F4CA01A9014751584FFB01DB01A80F7D
:10044000B91FEA17FB0739F05CBF4BBF6AB761936E
:100450004F5F5F4FF6CF280F391F47E04CBF57EE75
:100460005BBF3ABF4CBF38EE3BBF2ABF0895CF9366
:10047000DF931F92CDB7DEB7DC01ED91FC91028CCA
:10048000F38DE02D41E050E0BE016F5F7F4F099595
:100490001816190634F4898190E00F90DF91CF91FE
:1004A00008958FEF9FEFF9CFFC0197E09CBF85EE99
:1004B0008BBF8AB79CBF26EE2BBF6AB79CBF27EEC7
:1004C0002BBF2AB79CBF98EE9BBF3AB71CBE90E1EA
:1004D0009BBF9AB71CBE4FE04BBF4AB71CBE5EE045
:1004E0005BBF5AB71CBE7DE07BBF7AB7708B518B68
:1004F000428B938B1CBE91E19BBF4AB71CBE92E11D
:100500009BBF9AB7542F492F558B448B982F862F1A
:10051000232732272327821B930B08951CBE83E1D8
:100520008BBF8AB71CBE94E19BBF9AB789279827D7
:100530008927FB019C012B5E3F4FDB01A40FB51FF8
:10054000EA17FB0739F061913CBF2BBF6ABF2F5FF1
:100550003F4FF6CF480F591F1CBE83E18BBF5ABFD8
:100560001CBE84E18BBF4ABF90E080E00895CF932A
:10057000DF931F92CDB7DEB76983DC01ED91FC916B
:100580000280F381E02D41E050E0BE016F5F7F4FBC
:1005900009950F90DF91CF9108951CBE1BBE8FEF80
:1005A0008ABF1CBE1BBE82E08ABF90E080E0089537
:1005B000FB0132812381948185811CBE1BBE61E0D9
:1005C0006ABF1CBE6DE06BBF3ABF1CBE3EE03BBFC6
:1005D0002ABF1CBE2FE02BBF9ABF1CBE90E19BBF61
:1005E0008ABF1CBE81E18BBF5ABF1CBE82E18BBF9C
:1005F0004ABF81E090E008950895DC01ED91FC91FF
:10060000008CF18DE02D09941CBE8BE08BBF7ABF6E
:100610001CBE8CE08BBF6ABF1CBE1BBE83E08ABFC2
:1006200081E00895FC0184899589089526E431E0EC
:10063000FC0131832083FB014089518962897389E0
:10064000FC014283538364837583089590E080E0C6
:100650000895682F8DE092E00E94820121E030E051
:10066000892B11F030E020E0C9010895EF92FF924C
:100670000F931F93CF93DF9300D000D000D0CDB75E
:10068000DEB78C017B0186E491E09A8389838091B7
:10069000E1029091E202A091E302B091E4028B8327
:1006A0009C83AD83BE8349E350E3BE016F5F7F4F00
:1006B00084EC92E00E94D802A701B80184EC92E099
:1006C0000E948E0284EC92E00E94CD0281E090E0D4
:1006D00026960FB6F894DEBF0FBECDBFDF91CF9147
:1006E0001F910F91FF90EF900895DC01ED91FC9127
:1006F000028CF38DE02D0994FB0101900020E9F7B5
:100700003197AF01461B570BDC01ED91FC91028044
:10071000F381E02D09948F929F92AF92BF92EF9256
:10072000FF920F931F93CF93DF93CDB7DEB7A197BF
:100730000FB6F894DEBF0FBECDBF7C01FA01CB012E
:1007400019A2223008F42AE08E010F5D1F4F822E7D
:10075000912CB12CA12CBF01A50194010E94A109EB
:10076000F901CA016A300CF5605DD8016E938D0104
:10077000232B242B252B79F790E080E0109721F094
:10078000BD01C7010E947C03A1960FB6F894DEBF9D
:100790000FBECDBFDF91CF911F910F91FF90EF90D2
:1007A000BF90AF909F908F900895695CDECFCF93FC
:1007B000DF93BC018DE092E00E947C03EC0168E4D1
:1007C00071E08DE092E00E947C038C0F9D1FDF9111
:1007D000CF910895CF93DF93C8E6D0E0FE016491F6
:1007E000662339F08DE092E00E9482012196892BE8
:1007F000A9F768E471E08DE092E00E947C0398958F
:1008000090E080E0DF91CF910895CF93DF93EC01EA
:10081000FA012081318184E0220F331F8A95E1F7AC
:10082000207196E0660F771F9A95E1F76062262B9C
:100830008281938133E0880F991F3A95E1F78870A0
:10084000282B80859185880F991F880F991F8470A8
:10085000282B82859385880F991F8270282B2883E7
:1008600089E08983DE011296EBE4F1E001900D92BC
:100870008A95E1F7FA019A01205F3F4F8BE090E003
:100880004081518141305105B9F442815381452B5A
:1008900099F444815581052E000C660B770BDE011F
:1008A000A80FB91F7C9311966C93119712965C93C5
:1008B000129713964C93049638962E173F0701F71C
:1008C000DF91CF910895CF93DF93CDB7DEB7D450AA
:1008D0000FB6F894DEBF0FBECDBFAC0170E060E094
:1008E000CE0101960E9405041816190674F4BC0185
:1008F000CE0101960E943603DC5F0FB6F894DEBF8E
:100900000FBECDBFDF91CF91089590E080E0F4CF8E
:100910006F927F928F929F92AF92BF92CF92DF920F
:10092000EF92FF920F931F93CF93DF93CDB7DEB774
:10093000C052D4400FB6F894DEBF0FBECDBF6C01DD
:10094000A12C34E0B32E8E010F5F1F4FD801F501AB
:100950001D923197E9F7AC0161E070E0C8010E9497
:100960000504181619060CF086C0BC01C8010E94C7
:1009700036037C01019709F07EC0D801F5011D9274
:100980003197E9F76CEB72E080E090E00E94B000F4
:1009900084EC92E00E945402181619060CF06BC009
:1009A00040E054E0B80184EC92E00E9475038A8133
:1009B000482F082E000C550BDE0113969E012F5F69
:1009C0003B4FF9015D01BF01621B730B6417750793
:1009D0001CF49D919193F7CF87FD80E0082E000CC9
:1009E000990B0296240F351FD9011C92298125FBF2
:1009F000882480F8912CF60144E050E0712C612CA1
:100A00002981A22F220FBB0BBD01042E02C07595B8
:100A100067950A94E2F761707727718360836A01B2
:100A200021E0C21AD1089D0102C035952795CA94CC
:100A3000E2F72170332733832283672B91F0232B36
:100A400081F49501280F391FD9016C919C012D5F0C
:100A50003F4F200F311F0496D9012C91362F35833B
:100A600024834250510938966814790434F466247A
:100A70006394712CC5CFF12CE12CC701C05EDB4F14
:100A80000FB6F894DEBF0FBECDBFDF91CF911F919F
:100A90000F91FF90EF90DF90CF90BF90AF909F901D
:100AA0008F907F906F900895CF92DF92EF92FF9298
:100AB000CF93DF936C01990FEE08FF08F7FE1BC080
:100AC0006DE28DE092E00E948201EC0144275527FF
:100AD000BA014C195D096E097F092AE08DE092E0A8
:100AE0000E948B038C0F9D1FDF91CF91FF90EF90A1
:100AF000DF90CF9008952AE0B701A6018DE092E043
:100B0000DF91CF91FF90EF90DF90CF900C948B030B
:100B10008F929F92AF92BF92CF92DF92EF92FF920D
:100B20000F931F93CF93DF937C01EB016C0182E065
:100B3000C80ED11C4701E5E08E0E911C10E000E0CC
:100B4000F60141916F0150E070E060E02AE0CE01D3
:100B50000E948B035C01E881F9810190F081E02D16
:100B60006EE2CE0109958A0D9B1D080F191FC8144E
:100B7000D90431F7F701458150E070E060E02AE0E8
:100B8000CE010E948B03800F911FDF91CF911F91A7
:100B90000F91FF90EF90DF90CF90BF90AF909F901C
:100BA0008F9008951F920F920FB60F9211242F93DA
:100BB0003F938F939F93AF93BF9380910502909142
:100BC0000602A0910702B09108023091040223E0CE
:100BD000230F2D3758F50196A11DB11D2093040256
:100BE0008093050290930602A0930702B093080237
:100BF0008091090290910A02A0910B02B0910C021F
:100C00000196A11DB11D8093090290930A02A09341
:100C10000B02B0930C02BF91AF919F918F913F91C6
:100C20002F910F900FBE0F901F90189526E8230F5D
:100C30000296A11DB11DD2CF1F920F920FB60F9237
:100C400011242F933F934F935F936F937F938F93D1
:100C50009F93AF93BF93EF93FF938DE092E00E9439
:100C60006001FF91EF91BF91AF919F918F917F9123
:100C70006F915F914F913F912F910F900FBE0F9009
:100C80001F9018951F920F920FB60F9211242F9359
:100C90008F939F93EF93FF93E0911D02F0911E02BB
:100CA0008081E0912302F091240282FD1BC090819B
:100CB000809126028F5F8F7320912702821741F067
:100CC000E0912602F0E0E35FFD4F958F80932602CE
:100CD000FF91EF919F918F912F910F900FBE0F90E9
:100CE0001F9018958081F4CFCF92DF92EF92FF9200
:100CF000CF93DF93EDE0F2E01382128288EEC82EEC
:100D000083E0D82EE12CF12CC482D582E682F782D2
:100D10008CE091E09183808385EC90E095878487D7
:100D200084EC90E09787868780EC90E0918B808BB5
:100D300081EC90E0938B828B82EC90E0958B848B9E
:100D400086EC90E0978B868B118E128E138E148E0C
:100D5000EAEAF2E0C6E4D1E0D183C08312821382D2
:100D600014821582E8EBF2E0D183C08312821382F1
:100D700014821582E0EBF2E0D183C08312821382E9
:100D800014821582EEEBF2E0D183C08312821382CB
:100D900014821582E5EEF2E0D183C08312821382C1
:100DA000148215820E941709EFEDF2E0D183C0830F
:100DB00080EC828388EA838314828FE28583E4EC6B
:100DC000F2E013821282C482D582E682F7828EE13B
:100DD00091E091838083D787C687108A118A128A0F
:100DE000138A84E0808FEBEEF2E0D183C08312821D
:100DF000138214821582DF91CF91FF90EF90DF90E4
:100E0000CF900895CF93DF93CDB7DEB7A0970FB6FD
:100E1000F894DEBF0FBECDBF789484B5826084BDE8
:100E200084B5816084BD85B5826085BD85B58160EE
:100E300085BD80916E00816080936E00109281006C
:100E40008091810082608093810080918100816027
:100E500080938100809180008160809380008091E8
:100E6000B10084608093B1008091B0008160809374
:100E7000B00080917A00846080937A0080917A003B
:100E8000826080937A0080917A00816080937A00FA
:100E900080917A00806880937A001092C100E0917E
:100EA0001D02F0911E0292E09083E0911902F091F0
:100EB0001A021082E0911B02F0911C028FEC8083D9
:100EC00010922502E0912102F091220286E08083B7
:100ED000E0911F02F0912002808180618083E09187
:100EE0001F02F0912002808188608083E0911F02C0
:100EF000F0912002808180688083E0911F02F09150
:100F0000200280818F7D808329E233E03093FF01CE
:100F10002093FE0110920102109200029093F901B9
:100F2000109203021092020286EF91E09093F40275
:100F30008093F30288E08093B2028093B30280939F
:100F4000B4028093B5026CED75E080E090E00E9401
:100F5000B00046B787B728B739B790E0B0E0A0E057
:100F6000DC0199278827832B922B0E94C00885E5F6
:100F700091E00E94D7030E94170928EE33E040E079
:100F800050E00E946F0968577C4E8F4F9F4F84EC52
:100F900092E00E94040350E0E52E50E0F52E01E0BF
:100FA00010E0CE0141960E948804019709F063C0C9
:100FB00061E771E08DE092E00E947C038D899E895B
:100FC0000E9454056EE771E08DE092E00E947C0380
:100FD0008D8D9E8D0E94540581E891E00E94D7037B
:100FE0002D8D3E8D22303105A4F0E2E0F0E0EE9F41
:100FF000C001EF9F900D900D1124281739070CF4B4
:1010000056C0C901BF010E94D209892B11F0319647
:10101000EECFC9010E94540583E891E00E94D703F6
:101020008D8D9E8D1A8309831C821B821E821D82D8
:101030001A8709871C861B869E878D876AE971E05F
:101040008DE092E00E947C038D819E810E94540578
:101050006EE771E08DE092E00E947C038D859E85B5
:101060000E94540581E891E00E94D703CE010196C9
:101070000E94630404C080EB91E00E94D70368E4FF
:1010800071E08DE092E00E947C0368EC70E080E00B
:1010900090E00E94B000E114F10409F482CF0E94B4
:1010A0004C01882309F47DCF0E9400007ACFC9014A
:1010B0000E9454058CEC91E00E94D7038D8D9E8D8B
:1010C0001A8309831C821B821E830D831A8709875A
:1010D0001C861B869E878D876FED71E0B1CF8F9246
:1010E0009F92AF92BF92CF92DF92EF92FF92CF93F7
:1010F000DF93EC01688179818A819B81611571059B
:101100008105910521F464E279ED8BE597E02DE10D
:1011100033EF41E050E00E946F0949015A019B0101
:10112000AC01A7EAB1E40E948E096B017C01ACEE30
:10113000B4EFA50194010E949C09DC01CB018C0D48
:101140009D1DAE1DBF1DB7FF03C00197A109B0488B
:1011500088839983AA83BB839F77DF91CF91FF9088
:10116000EF90DF90CF90BF90AF909F908F900895B9
:101170000E946F08089580E091E00E946F08089532
:10118000B0E0A0E08093000190930101A0930201E0
:10119000B093030108958F929F92AF92BF92CF9226
:1011A000DF92EF92FF92CF93DF93EC016881798118
:1011B0008A819B81611571058105910521F464E2A5
:1011C00079ED8BE597E02DE133EF41E050E00E94AF
:1011D0006F0949015A019B01AC01A7EAB1E40E94E1
:1011E0008E096B017C01ACEEB4EFA50194010E9465
:1011F0009C09C60ED71EE81EF91EF7FE06C081E048
:10120000C81AD108E10880E8F80AC882D982EA82BF
:10121000FB82C701B6019F77DF91CF91FF90EF90DE
:10122000DF90CF90BF90AF909F908F9008958F9256
:101230009F92AF92BF92CF92DF92EF92FF92609116
:1012400004017091050180910601909107016115DB
:1012500071058105910521F464E279ED8BE597E054
:101260002DE133EF41E050E00E946F0949015A013E
:101270009B01AC01A7EAB1E40E948E096B017C01DD
:10128000ACEEB4EFA50194010E949C09C60ED71ED6
:10129000E81EF91EF7FE06C081E0C81AD108E10871
:1012A00080E8F80AC0920401D0920501E09206019C
:1012B000F0920701C701B6019F77FF90EF90DF9092
:1012C000CF90BF90AF909F908F900895609304014E
:1012D0007093050180930601909307010895052EF0
:1012E00097FB1EF400940E94860957FD07D00E94C8
:1012F000A10907FC03D04EF40C9486095095409543
:10130000309521953F4F4F4F5F4F089590958095B1
:10131000709561957F4F8F4F9F4F08950E94C3092D
:10132000A59F900DB49F900DA49F800D911D112439
:101330000895B7FF0C948E090E948E09821B930BAF
:101340000895A1E21A2EAA1BBB1BFD010DC0AA1F06
:10135000BB1FEE1FFF1FA217B307E407F50720F01E
:10136000A21BB30BE40BF50B661F771F881F991F99
:101370001A9469F760957095809590959B01AC01E2
:10138000BD01CF010895A29FB001B39FC001A39FEB
:10139000700D811D1124911DB29F700D811D1124AE
:1013A000911D089597FB072E16F4009407D077FD42
:1013B00009D00E94E60907FC05D03EF4909581957E
:1013C0009F4F0895709561957F4F0895AA1BBB1B91
:1013D00051E107C0AA1FBB1FA617B70710F0A61B35
:1013E000B70B881F991F5A95A9F780959095BC0156
:1013F000CD010895EE0FFF1F0590F491E02D0994A3
:04140000F894FFCF8E
:101404000100000001000000000000008201E20071
:101414000F01CF0140011E01320100000000B7029C
:101424008E022603F101FD023702FB010403FC02D4
:10143400D802EA03CD025402FE0175031603120317
:10144400EF010000000088050D0A00776F726B65DC
:101454007252657100506F6C61637A6F6E6F207A9F
:10146400207369656369612045746865726E65748B
:10147400004F74727A796D616E6F3A205B002C2094
:10148400005D002D6E6965206C69637A626120706D
:1014940069657277737A612D30004B726F746B617A
:1014A40020646F207779736C616E69613A205B0008
:1014B400426C61642070727A79206F64626965722B
:1014C400616E6975206B726F746B69002D6C696352
:1014D4007A6261207069657277737A612D31004B8D
:1014E400726F746B6120646F20777973C582616E4B
:0614F40069613A200000CE
:00000001FF
